:020000040800F2
:100000000000022059090008550900089D7F0008DA
:1000100055090008550900085509000800000000AE
:10002000000000000000000000000000550900086A
:10003000550900080000000055090008217F00084C
:100040005509000855090008550900085509000818
:100050005509000855090008550900085509000808
:10006000550900085509000855090008216A0008CB
:100070002D6A000855090008396A0008456A000819
:10008000A17800084D5F00085509000855090008CF
:1000900055090008550900085509000855090008C8
:1000A00055090008550900085509000855090008B8
:1000B0002D2501083925010845250108815F000823
:1000C000550900088D5F0008550900089D1D0108AD
:1000D000A91D0108D57600080177000835770008CA
:1000E00055090008550900080000000055090008DE
:1000F0005509000855090008550900085509000868
:10010000550900085509000851250108B51D0108C9
:10011000697700089D77000855090008550900080F
:100120005509000855090008D91D01080D1E0108D0
:10013000D578000855090008550900085509000838
:1001400000000000000000000000000000000000AF
:10015000550900085509000855090008D17700081D
:10016000995F000855090008317F0008557F000895
:1001700055090008797F000855090008550900084D
:100180005509000855090008057800083978000865
:10019000C11D0108CD1D01085509000855090008B9
:1001A00055090008550900085509000855090008B7
:1001B000416700085509000855090008550900085D
:1001C0005509000855090008550900085509000897
:1001D0005509000855090008550900085509000887
:1001E0005509000855090008550900085509000877
:1001F0005509000855090008550900085509000867
:100200005509000855090008550900085509000856
:100210005509000855090008550900085509000846
:10022000550900085509000855090008000000009C
:10023000550900085509000800000000550900088C
:100240005509000855090008550900085509000816
:100250005509000855090008550900085509000806
:1002600055090008550900085509000855090008F6
:1002700055090008550900086D78000800000000C5
:10028000550900085509000855090008000000003C
:08029000000000005509000800
:1002980010B5054C237833B9044B13B10448AFF3B8
:1002A80000800123237010BDE0030024000000003B
:1002B8008856010808B5034B1BB103490348AFF33F
:1002C800008008BD00000000E403002488560108EF
:1002D80081F0004102E000BF83F0004330B54FEAEF
:1002E80041044FEA430594EA050F08BF90EA020F5C
:1002F8001FBF54EA000C55EA020C7FEA645C7FEAEF
:10030800655C00F0E2804FEA5454D4EB5555B8BF11
:100318006D420CDD2C4480EA020281EA030382EA82
:10032800000083EA010180EA020281EA0303362D14
:1003380088BF30BD11F0004F4FEA01314FF4801CE7
:100348004CEA113102D0404261EB410113F0004FF9
:100358004FEA03334CEA133302D0524263EB4303B0
:1003680094EA050F00F0A780A4F10104D5F1200E4E
:100378000DDB02FA0EFC22FA05F2801841F10001A9
:1003880003FA0EF2801843FA05F359410EE0A5F17D
:1003980020050EF1200E012A03FA0EFC28BF4CF0AE
:1003A800020C43FA05F3C01851EBE37101F0004564
:1003B80007D54FF0000EDCF1000C7EEB00006EEB71
:1003C8000101B1F5801F1BD3B1F5001F0CD34908FB
:1003D8005FEA30004FEA3C0C04F101044FEA445252
:1003E80012F5800F80F09A80BCF1004F08BF5FEAD9
:1003F800500C50F1000041EB045141EA050130BDB9
:100408005FEA4C0C404141EB0101013C28BFB1F5CA
:10041800801FE9D291F0000F04BF01460020B1FA15
:1004280081F308BF2033A3F10B03B3F120020CDAE8
:100438000C3208DD02F1140CC2F10C0201FA0CF0C6
:1004480021FA02F10CE002F11402D8BFC2F1200C2B
:1004580001FA02F120FA0CFCDCBF41EA0C019040E1
:10046800E41AA2BF01EB0451294330BD6FEA04042A
:100478001F3C1CDA0C340EDC04F11404C4F1200215
:1004880020FA04F001FA02F340EA030021FA04F327
:1004980045EA030130BDC4F10C04C4F1200220FA7E
:1004A80002F001FA04F340EA0300294630BD21FABC
:1004B80004F0294630BD94F0000F83F4801306BF82
:1004C80081F480110134013D4EE77FEA645C18BF76
:1004D8007FEA655C29D094EA050F08BF90EA020F0D
:1004E80005D054EA000C04BF1946104630BD91EA05
:1004F800030F1EBF0021002030BD5FEA545C05D108
:100508004000494128BF41F0004130BD14F5800446
:100518003CBF01F5801130BD01F0004545F0FE41BA
:1005280041F470014FF0000030BD7FEA645C1ABFEF
:10053800194610467FEA655C1CBF0B46024650EA26
:10054800013406BF52EA033591EA030F41F4002152
:1005580030BD00BF90F0000F04BF0021704730B5D8
:100568004FF4806404F132044FF000054FF00001AD
:1005780050E700BF90F0000F04BF0021704730B56E
:100588004FF4806404F1320410F0004548BF404243
:100598004FF000013EE700BF42004FEAE2014FEA98
:1005A80031014FEA02701FBF12F07F4393F07F4F73
:1005B80081F06051704732F07F4208BF704793F076
:1005C8007F4F04BF41F40021704730B54FF4607489
:1005D80001F0004521F000411CE700BF50EA01028C
:1005E80008BF704730B54FF000050AE050EA010235
:1005F80008BF704730B511F0004502D5404261EBA5
:1006080041014FF4806404F132045FEA915C3FF4E5
:10061800D8AE4FF003025FEADC0C18BF03325FEA82
:10062800DC0C18BF033202EBDC02C2F1200300FA33
:1006380003FC20FA02F001FA03FE40EA0E0021FA58
:1006480002F11444BDE600BF53B94AB9002908BFF6
:1006580000281CBF4FF0FF314FF0FF3000F074B995
:10066800ADF1080C6DE904CE00F006F8DDF804E001
:10067800DDE9022304B070472DE9F047089D0446E0
:100688008E46002B4DD18A42944669D9B2FA82F23D
:1006980052B101FA02F3C2F1200120FA01F10CFA79
:1006A80002FC41EA030E94404FEA1C48210CBEFBB1
:1006B800F8F61FFA8CF708FB16E341EA034306FB3A
:1006C80007F199420AD91CEB030306F1FF3080F0C9
:1006D8001F81994240F21C81023E63445B1AA4B216
:1006E800B3FBF8F008FB103344EA034400FB07F7B8
:1006F800A7420AD91CEB040400F1FF3380F00A81F9
:10070800A74240F207816444023840EA0640E41BED
:1007180000261DB1D4400023C5E900433146BDE899
:10072800F0878B4209D9002D00F0EF800026C5E93B
:10073800000130463146BDE8F087B3FA83F6002E53
:100748004AD18B4202D3824200F2F980841A61EBCB
:10075800030301209E46002DE0D0C5E9004EDDE7E9
:1007680002B9FFDEB2FA82F2002A40F09280A1EBD1
:100778000C014FEA1C471FFA8CFE0126200CB1FB26
:10078800F7F307FB131140EA01410EFB03F088421F
:1007980008D91CEB010103F1FF3802D2884200F2AC
:1007A800CB804346091AA4B2B1FBF7F007FB10113E
:1007B80044EA01440EFB00FEA64508D91CEB0404DC
:1007C80000F1FF3102D2A64500F2BB800846A4EB37
:1007D8000E0440EA03409CE7C6F12007B34022FA22
:1007E80007FC4CEA030C20FA07F401FA06F31C4351
:1007F800F9404FEA1C4900FA06F3B1FBF9F8200C5E
:100808001FFA8CFE09FB181140EA014108FB0EF0A3
:10081800884202FA06F20BD91CEB010108F1FF3AF3
:1008280080F08880884240F28580A8F102086144FF
:10083800091AA4B2B1FBF9F009FB101144EA01410D
:1008480000FB0EFE8E4508D91CEB010100F1FF34B8
:100858006CD28E456AD90238614440EA0840A0FB50
:100868000294A1EB0E01A142C846A64656D353D026
:100878005DB1B3EB080261EB0E0101FA07F722FA4A
:1008880006F3F1401F43C5E9007100263146BDE873
:10089800F087C2F12003D8400CFA02FC21FA03F3D6
:1008A800914001434FEA1C471FFA8CFEB3FBF7F057
:1008B80007FB10360B0C43EA064300FB0EF69E427C
:1008C80004FA02F408D91CEB030300F1FF382FD215
:1008D8009E422DD9023863449B1B89B2B3FBF7F6BD
:1008E80007FB163341EA034106FB0EF38B4208D996
:1008F8001CEB010106F1FF3816D28B4214D9023ED7
:100908006144C91A46EA004638E72E46284605E7F4
:100918000646E3E61846F8E64B45A9D2B9EB0208C5
:1009280064EB0C0E0138A3E74646EAE7204694E755
:100938004046D1E7D0467BE7023B614432E7304688
:1009480009E76444023842E7704700BFFEE700BF8A
:100958000B480C4A904203D0121A0B4913F044FA80
:100968000A480B4A904203D0121A002113F04AFA9F
:1009780007F066FD13F014FA00F080F8FEE700BFF8
:1009880000000024E0030024C0560108E00300240E
:1009980048440124704700BF704700BF1BB9136962
:1009A8000BB1D26818477047B9B30144F0B5154682
:1009B800A5B002F12407441E4E1E01E0A6422AD02B
:1009C80014F8011F6A46384604F0D2FE0028F5D014
:1009D800D5F8C4C090226946D5E93203C31A00F19C
:1009E800010E00EBC00048BF63440CF1FF3C9C457E
:1009F800E4D0D5F8C030C5F8C8E003EB001013F018
:100A0800F3F9D5E931239342A3EB020328BFC5F8D4
:100A1800C830A642D4D125B0F0BD7047044903467A
:100A2800044A097804481943137003F029BC00BF2D
:100A3800000400244C0400240C0400240449034648
:100A4800044A097804481943137003F019BC00BF1D
:100A58004C040024000400240C04002438B5064D7E
:100A6800044605F1140004F029FE21462846BDE895
:100A7800384003F001BC00BF0C0400242DE9F0430A
:100A88000021D3B09448954E03F0BAFC944802F084
:100A9800E7F93378BFF35B8F13F0010500F0F480BA
:100AA800904C02AE06AD0AAF304604F04DFE96E813
:100AB8000F00002685E80F0084E80F000123CDE928
:100AC8003036339347F6122334930223329394E853
:100AD8000F0087E80F002F9010461A46BB88ADF824
:100AE800BA30FB88C4E90502ADF8B83012B1314616
:100AF80013F088F92EA97C4806F09EFF7B4804F085
:100B0800EFFE4FF07E537A4E2021BB60FB60744BA2
:100B18007148336003237460C7E9001303F0B4FB22
:100B2800012800F0A58040F204630022ADF8C2302D
:100B38004FF44173ADF8C4300123CDE936230123C6
:100B48004FF000082EA928463393359341933893E4
:100B5800CDF8D080CDF8B880ADF8EC80DFF888917A
:100B6800CDE93D33032332933C93624B2F9340F2FC
:100B78000453ADF8C030604B399303F1012303F5FA
:100B88007D03C5E900883A93CDE93F8805F0D0FF99
:100B980038A907A805F0CCFF39465848D5E90023FD
:100BA80004F044FD4146DFF868814B4803F068FBD8
:100BB80014214846E461C4F8208007F07FF9504BBF
:100BC800CDF800904846D4E9051206F09FFF00F0E2
:100BD800E9F8434800F0FAF8746804F1100528466B
:100BE80007F01EF860B37568D5E932341A1B21D4B2
:100BF800002AEED0A34235D0D5F8C03004EBC401AA
:100C080090222EA803EB0111013413F0EDF8D5F86A
:100C1800C430C5F8CC409C4202D3E41AC5F8CC4095
:100C280090222EA9384613F0DFF83946304802F0F2
:100C3800A9FCCEE7D5F8C4100A44002AC9D0D9E7E0
:100C480004F1240004F04CFE28461421C4E90748A6
:100C580007F034F92A4B2846D4E90512009506F026
:100C680055FFC0E790220021384613F0CBF8DCE7A7
:100C780040F204633690ADF8C2304FF44173ADF8DA
:100C8800C430002337935AE73046164C12F031FD32
:100C980000283FF406AF204604F056FD194A40F2FA
:100CA8000F733046C4F8B82004F1D002A4F8BC3061
:100CB80040F20113C4F8C0202561C4F8C850C4F834
:100CC800CC50C4F8C43012F020FD0F4A0F4920461A
:100CD80012F00AFDE5E600BF0C040024FC03002422
:100CE800B0950024500400246004002474040024F7
:100CF800040400240402040400010609200400245A
:100D0800A50900080080707F00000024A1090008E0
:100D1800B109000808B507480023074A0360436182
:100D28000362C363054912F0DFFC0548BDE80840CB
:100D380002F026B80C040024000000249D090008D5
:100D4800B0950024F0B4144B144E1B683768DB1BB5
:100D5800002B1DDD124B07F0010003EB00239AB1B5
:100D68008D6803EBC20C0C68C86849681A680833B8
:100D780045F8042B634544F8042B53F8042C40F839
:100D8800042B41F8042BF1D101373760F0BC7047D0
:100D98000120F0BCFFF752BE841201248012012406
:100DA8008812012410B406480224064B002204606D
:100DB800202105485DF8044B1A60FFF74FBE00BFBD
:100DC80084120124801201244D0D0008094B10B52E
:100DD800094C1B682168CB1A012B00DD10BD074B9D
:100DE80001F0010103EB012102F05EF823680133F1
:100DF800236010BD8012012484120124881201246A
:100E0800DFED125A4FF07E52D0ED017A9FED106A55
:100E180067EEA57A9FED0F7ADFED0F6A80ED047A11
:100E280067EE867A0D4B016080ED036A27EE877ABC
:100E3800C0ED025A67EEA67AC0ED056A0262436207
:100E480080ED067AC0ED077A704700BF0020FD3EAE
:100E580000FC7F3FBA02353F2C07353FABAAAA37C3
:100E6800436F0F2B04D800EB8302013351634367B0
:100E7800704700BF30B4456F95B100F130020023D0
:100E880002E001339D420BD052F8044F8C42F8D156
:100E980000EB8502013D00EB8303126B45675A6343
:100EA80030BC704710B4446F9CB100F1300200238D
:100EB80001E0A34209D052F8040F013390F800C0B2
:100EC8006145F6D15DF8044B704700205DF8044B8E
:100ED80070472046F6E700BF2DE9F04106460C466C
:100EE80050F8281B15462DED028B0C3102F0D8FA6C
:100EF8003368B0EE408A93ED010A28EE000A12F03A
:100F080023FDF7EE000A3368D6ED088A30EEC88A6A
:100F1800D3ED027A736F60EE288A28EE278A8BB1A8
:100F280006F130080027174AF0EE480A1649B0EED5
:100F3800680A58F8040F02F009FC0137736F124A67
:100F4800BB42F1D8104B2A46214603F18000B3EC8E
:100F5800017A0831D2ED007A0832D6ED066A984255
:100F6800E6EE877A41ED027A52ED017AD6ED076A0C
:100F7800E6EE877A41ED017AE9D1BDEC028BBDE856
:100F8800F08100BF703E01088814012400000000B1
:100F980006EE901A9FED187BB8EE660B10B520EEA2
:100FA800070B04462DED028BB7EEC08BB0EE480A56
:100FB80012F0AEFBF0EE407AB0EE480AC4ED047AC7
:100FC800B0EE678A12F0C4FD94ED017AD4ED027A8E
:100FD800D4ED036A67EE277A84ED050A67EEA67AF0
:100FE80028EE278A60EE277A84ED068AC4ED077A10
:100FF800BDEC028B10BD00BF27A4C3DD5F22193FE3
:1010080007EE901A90ED090AF8EEE77A10B5044653
:1010180027EE800A12F098FC84ED080A10BD00BF84
:1010280000214FF07E53002200F1380C2DE9F041E9
:10103800416000F1280481600646234900F5C47820
:10104800224D02800273C281016143618361C361E1
:101058000362436295E80F0084E80F00F7EE007A18
:101068004FF0000E9FED1A7A0CF120048CF800E086
:101078000CF1380C0CF837EC3C270CF836EC0CF873
:1010880035EC4CED0D7A0CED0C7A0CED0B7A4CED41
:101098000A7A4CED097A4CED087A0CED077AC445CA
:1010A80095E80F0084E80F000CF807EC0CF8087CB2
:1010B8000CF806EC0CF805EC0CF804ECCED1304634
:1010C800C6ED567ABDE8F081CB24FD001C3E010830
:1010D8000000000038B580ED050A04460D46C0ED55
:1010E800060A3AB1D1ED007A002327EE800AC360E0
:1010F80080ED020AD5ED057A00239FED187A63701A
:1011080067EE877A21789FED167A67EEA00AFCEEE3
:10111800E07A17EE903A5A090132002918BF1346AF
:10112800626000EE103AB8EEC00A87EE000A12F0CC
:101138000BFCD5ED017A94ED056AD4ED026A94EDC5
:10114800037A67EE867A84ED040A76EEE76AC4EDE0
:10115800027A37EE267A84ED037A38BD00803B4761
:10116800180991C038B502EB8105DFED1B6A90EDD7
:10117800060A0446D5ED057A007867EEA67A9FED53
:10118800177A617067EE807AFCEEE77A17EE903A8C
:101198005A090132002818BF1346626000EE103A5F
:1011A800B8EEC00A87EE000A12F0CEFBD5ED017A40
:1011B80094ED056AD4ED026A94ED037A67EE867AB7
:1011C80084ED040A76EEE76AC4ED027A37EE267AF1
:1011D80084ED037A38BD00BF00803B47180991C0F1
:1011E8002DE9F04F2DED028B83B0D0F80CB02E4DC9
:1011F8001C46DDF83890B0EE408AF0EE608A2B4E3F
:101208000BEA09034FF000080F469246294632467A
:1012180020460093334601F0DBF9F0EE680AB0EEA1
:10122800480A2B463246294604F13800CDF800809A
:1012380001F0CEF9F0EE680AB0EE480A2B463246C5
:10124800294604F17000CDF8008001F0C1F9F0EEF4
:10125800680AB0EE480A52462B46394604F1A800FF
:10126800CDF8008001F0B4F929EA0B03F0EE680A22
:101278003246B0EE480A294604F1E00000933346AE
:1012880001F0A6F9F0EE680AB0EE480A2B463A4695
:10129800394604F58C70CDF8388003B0BDEC028B6C
:1012A800BDE8F04F01F094B908150124703E01081B
:1012B8002DE9F0432DED028B83B0294D1C46B0EE8D
:1012C800408AF0EE608A274E0C9B0027884691469C
:1012D8002946324620460093334601F079F9F0EE6C
:1012E800680AB0EE480A2B463246294604F138000F
:1012F800009701F06DF9F0EE680AB0EE480A4A4628
:101308002B46414604F17000009701F061F9F0EEB8
:10131800680AB0EE480A33463246294604F1A80066
:10132800009701F055F9F0EE680AB0EE480A324627
:101338002B46294604F1E000009701F049F9F0EE48
:10134800680AB0EE480A2B464246414604F58C70BE
:101358000C9703B0BDEC028BBDE8F04301F038B93F
:1013680008150124703E01082DE9F0432DED028B8C
:1013780083B01C46B0EE408ADFF8A480F0EE608AA5
:10138800264E0C9B0D460027914631464246204684
:101398000093434601F01CF9F0EE680AB0EE480AE3
:1013A8004A463346294604F13800009701F010F9FF
:1013B800F0EE680AB0EE480A43464246314604F168
:1013C8007000009701F004F9F0EE680AB0EE480AE0
:1013D80033462A46294604F1A800009701F0F8F898
:1013E800F0EE680AB0EE480A43464246314604F138
:1013F800E000009701F0ECF8F0EE680AB0EE480A59
:1014080033462A46294604F58C700C9703B0BDEC88
:10141800028BBDE8F04301F0DBB800BF08150124DA
:10142800703E01082DE9F04F2DED028B85B01C466A
:101438009346C368DDF840A0B0EE408A0269F0EE3A
:10144800608A2E4D4FF000091A4303EA0A032C4E16
:1014580088460093D34307463246204629460393DD
:10146800334601F0B5F8F0EE680AB0EE480A2B46AC
:101478003246294604F13800CDF8009001F0A8F86A
:101488003B69F0EE680A2A460AEA0303B0EE480A06
:10149800294604F170000093334601F099F8F0EE04
:1014A800680AB0EE480A5A462B46414604F1A8009D
:1014B800CDF8009001F08CF8039BF0EE680A3246F4
:1014C80003EA0A03B0EE480A294604F1E000009353
:1014D800334601F07DF8F0EE680AB0EE480A2B4674
:1014E8004246414604F58C70CDF8409005B0BDECFD
:1014F800028BBDE8F04F01F06BB800BF081501245E
:10150800703E01082DE9F04F2DED028B83B0D0F825
:101518000CB02E4D1C46DDF83890B0EE408AF0EE47
:10152800608A2B4E0BEA09034FF000080F469246DB
:101538002946324620460093334601F049F8F0EE3A
:10154800680AB0EE480A33462A46294604F13800AC
:10155800CDF8008001F03CF8F0EE680AB0EE480AD9
:1015680052462B46394604F17000CDF8008001F050
:101578002FF829EA0B03F0EE680A3246B0EE480A63
:10158800294604F1A8000093334601F021F8F0EE53
:10159800680AB0EE480A32462B46294604F1E000B4
:1015A800CDF8008001F014F8F0EE680AB0EE480AB1
:1015B8002B463A46394604F58C70CDF8388003B08E
:1015C800BDEC028BBDE8F04F01F002B8081501240C
:1015D800703E01082DE9F04F2DED028B83B0D0F855
:1015E8000CB02E4D1C46DDF83890B0EE408AF0EE77
:1015F800608A2B4E0BEA09034FF000080F4692460B
:101608002946324620460093334600F0E1FFF0EECB
:10161800680AB0EE480A33462A46294604F13800DB
:10162800CDF8008000F0D4FFF0EE680AB0EE480A6A
:1016380033462A46294604F17000CDF8008000F0B0
:10164800C7FFF0EE680AB0EE480A52462B46394604
:1016580004F1A800CDF8008000F0BAFF29EA0B03D6
:10166800F0EE680A3246B0EE480A294604F1E00076
:101678000093334600F0ACFFF0EE680AB0EE480A7B
:101688002B463A46394604F58C70CDF8388003B0BD
:10169800BDEC028BBDE8F04F00F09ABF081501249D
:1016A800703E01082DE9F04F2DED028B83B0D0F884
:1016B8000CB02E4D1C46DDF83890B0EE408AF0EEA6
:1016C800608A2B4E0BEA09034FF000080F4692463A
:1016D8002946324620460093334600F079FFF0EE63
:1016E800680AB0EE480A33462A46294604F138000B
:1016F800CDF8008000F06CFFF0EE680AB0EE480A02
:101708002B463246294604F17000CDF8008000F0DF
:101718005FFFF0EE680AB0EE480A52462B4639469B
:1017280004F1A800CDF8008000F052FF29EA0B036D
:10173800F0EE680A3246B0EE480A294604F1E000A5
:101748000093334600F044FFF0EE680AB0EE480A12
:101758002B463A46394604F58C70CDF8388003B0EC
:10176800BDEC028BBDE8F04F00F032BF0815012434
:10177800703E01082DE9F04F2DED028B85B01C4617
:10178800D0F80CA0B0EE408A109BF0EE608A2A4D8B
:1017980000272A4E884603930AEA030391462946FE
:1017A80032462046DFF898B00093334600F010FF29
:1017B800F0EE680AB0EE480A2B463246294604F194
:1017C8003800009700F004FFF0EE680AB0EE480A0F
:1017D80033463246594604F17000009700F0F8FE8F
:1017E800F0EE680AB0EE480A5B462A46294604F13C
:1017F800A800009700F0ECFE039BF0EE680A2A466A
:1018080023EA0A03B0EE480A294604F1E0000093EF
:10181800334600F0DDFEF0EE680AB0EE480A2B46CB
:101828004A46414604F58C70109705B0BDEC028B12
:10183800BDE8F04F00F0CCBE08150124703E010849
:10184800881501242DE9F0472B4C1D462B4E002707
:101858008846914633463246214628462DED028B6E
:10186800B0EE408A82B0F0EE608A0097DDF830A0D2
:1018780000F0AEFEF0EE680A2346B0EE480A3246A3
:10188800214605F13800009700F0A2FEF0EE680A44
:10189800B0EE480A23463246214605F1700000970B
:1018A80000F096FEF0EE680AB0EE480A334622468B
:1018B800214605F1A800CDF800A000F089FEF0EE61
:1018C800680AB0EE480A33462246214605F1E00090
:1018D800009700F07DFEF0EE680AB0EE480A234655
:1018E8004A46414605F58C700C9702B0BDEC028B58
:1018F800BDE8F04700F06CBE08150124703E0108F1
:101908002DE9F0432DED028B83B01C46294DB0EE36
:10191800408AF0EE608ADFF8A0800C9B0E46002714
:1019280091462946424620460093434600F050FE21
:10193800F0EE680AB0EE480A4A462B46314604F1F2
:101948003800009700F044FEF0EE680AB0EE480A4E
:101958002B463246314604F17000009700F038FEFD
:10196800F0EE680AB0EE480A43464246294604F1BA
:10197800A800009700F02CFEF0EE680AB0EE480AC6
:1019880042462B46294604F1E000009700F020FE6D
:10199800F0EE680AB0EE480A2B463246314604F5A6
:1019A8008C700C9703B0BDEC028BBDE8F04300F0DF
:1019B8000FBE00BF08150124703E01082DE9F0474D
:1019C8001C462C4DDFF8B08000270E469146434652
:1019D8004246294620462DED028BB0EE408A82B061
:1019E800F0EE608A0097DDF830A000F0F1FDF0EE2F
:1019F800680A4346B0EE480A2A46294604F13800E8
:101A0800009700F0E5FDF0EE680AB0EE480A4A4695
:101A18002B46314604F17000009700F0D9FDF0EE36
:101A2800680AB0EE480A43464246294604F1A8002F
:101A3800CDF800A000F0CCFDF0EE680AB0EE480A40
:101A48002B463246314604F1E000009700F0C0FD15
:101A5800F0EE680AB0EE480A2B463246314604F5E5
:101A68008C700C9702B0BDEC028BBDE8F04700F01B
:101A7800AFBD00BF08150124703E01082DE9F043F1
:101A88002DED028B83B01C46C368B0EE408ADDF8AA
:101A98003080F0EE608A0D46002708EA030391467D
:101AA8000646284900932046274B1A4600F090FD29
:101AB800F0EE680AB0EE480A4A46294604F13800B2
:101AC800204B009700F084FDF0EE680AB0EE480A5B
:101AD8002A46294604F170001A4B009700F078FD59
:101AE800F368F0EE680A04F1A80028EA0303B0EEF0
:101AF800480A14490093144B1A4600F069FDF0EEA9
:101B0800680AB0EE480A2A46294604F1E0000D4B5F
:101B1800009700F05DFD04F58C700C97F0EE680AF4
:101B2800F668B0EE480A074C2A46074B2946BE42DB
:101B380008BF234603B0BDEC028BBDE8F04300F0BC
:101B480047BD00BF08150124703E01082DE9F04388
:101B58002DED028B83B01C46B0EE408A284EF0EE85
:101B6800608ADFF8A0800C9B0D460027914631461D
:101B7800424620460093434600F02AFDF0EE680AEC
:101B8800B0EE480A4A463346294604F13800009721
:101B980000F01EFDF0EE680AB0EE480A33462A4609
:101BA800294604F17000009700F012FDF0EE680A73
:101BB800B0EE480A33462A46294604F1A8000097A1
:101BC80000F006FDF0EE680AB0EE480A43464246C9
:101BD800314604F1E000009700F0FAFCF0EE680AE4
:101BE800B0EE480A33462A46294604F58C700C970D
:101BF80003B0BDEC028BBDE8F04300F0E9BC00BFC8
:101C080008150124703E01082DE9F04F2DED028BD7
:101C180083B01D46B0EE408A2D4E0E9BF0EE608AD2
:101C2800DFF8B080914600930C46427B0027037B87
:101C38004146002A14BFB346C3462846002B14BFAA
:101C4800C246B2463246334600F0C2FCF0EE680A9D
:101C5800B0EE480A43464A46214605F13800009747
:101C680000F0B6FCF0EE680AB0EE480A5B46224681
:101C7800214605F17000009700F0AAFCF0EE680A12
:101C8800B0EE480A53462246214605F1A8000097BF
:101C980000F09EFCF0EE680AB0EE480A3346224691
:101CA800214605F1E000009700F092FCF0EE680A8A
:101CB800B0EE480A33462246214605F58C700E9749
:101CC80003B0BDEC028BBDE8F04F00F081BC00BF53
:101CD800703E0108081501242DE9F04F2DED028B07
:101CE80083B0D0F80CB01C462B4DDDF83890B0EE20
:101CF800408AF0EE608ADFF8A4800BEA0903002727
:101D08000E4692462946424620460093434600F036
:101D18005FFCF0EE680AB0EE480A43462A462946B8
:101D280004F13800009700F053FCF0EE680AB0EEBA
:101D3800480A52462B46314604F17000009700F0DD
:101D480047FC29EA0B03F0EE680A4246B0EE480A5F
:101D5800294604F1A8000093434600F039FCF0EE50
:101D6800680AB0EE480A2B463246314604F1E000D4
:101D7800009700F02DFCF0EE680AB0EE480A2B46FA
:101D88003246314604F58C700E9703B0BDEC028BD9
:101D9800BDE8F04F00F01CBC08150124703E010896
:101DA8002DE9F0432DED028B83B01C46B0EE408A3E
:101DB800DFF8A080F0EE608A0027254D4346DDF865
:101DC8003090204600970E4600F002FCF0EE680ABC
:101DD800B0EE480A43464246294604F13800CDF899
:101DE800009000F0F5FBF0EE680AB0EE480A2B46CA
:101DF8004246294604F17000009700F0E9FBF0EE36
:101E0800680AB0EE480A2B463246314604F1A8006B
:101E1800009700F0DDFBF0EE680AB0EE480A434692
:101E28004246294604F1E000009700F0D1FBF0EEAD
:101E3800680AB0EE480A2B463246314604F58C70E3
:101E48000C9703B0BDEC028BBDE8F04300F0C0BBBB
:101E580008150124703E01082DE9F0432DED028B91
:101E680083B01C46B0EE408A284EF0EE608ADFF858
:101E7800A0800C9B0D4600279146414632462046DD
:101E88000093334600F0A4FBF0EE680AB0EE480A6F
:101E98004A464346294604F13800009700F098FB6B
:101EA800F0EE680AB0EE480A33463246414604F17D
:101EB8007000009700F08CFBF0EE680AB0EE480A5C
:101EC80043462A46294604F1A800009700F080FB03
:101ED800F0EE680AB0EE480A33462A46294604F16D
:101EE800E000009700F074FBF0EE680AB0EE480AD4
:101EF80033462A46294604F58C700C9703B0BDEC8E
:101F0800028BBDE8F04300F063BB00BF703E0108E0
:101F1800081501242DE9F0432DED028B83B01C46F2
:101F2800B0EE408A274EF0EE608A0027DFF89880EE
:101F38003346DDF83090204600970D4600F048FB08
:101F4800F0EE680AB0EE480A33463246414604F1DC
:101F58003800CDF8009000F03BFBF0EE680AB0EED8
:101F6800480A43463246414604F17000009700F0A3
:101F78002FFBF0EE680AB0EE480A43462A46294687
:101F880004F1A800009700F023FBF0EE680AB0EE19
:101F9800480A33462A46294604F1E000009700F033
:101FA80017FBF0EE680AB0EE480A33462A4629467F
:101FB80004F58C700C9703B0BDEC028BBDE8F043C0
:101FC80000F006BB703E010808150124F0B52DEDA0
:101FD800028B83B01846F0EE408A0D460A9BB0EE9D
:101FE800608A00F1380400F5A87700930A4B00F0E6
:101FF800EFFA002620463834F0EE480AB0EE680AB8
:10200800054B2A462946009600F0E2FABC42F0D178
:1020180003B0BDEC028BF0BD703E01082DE9F04124
:102028001C461C4DDFF87080002720460E462DED1B
:10203800028BB0EE408A82B0F0EE608A0A9B00F014
:10204800D7FCB0EE480AF0EE680A434642462946F5
:1020580004F1A800009700F0BBFAF0EE680AB0EEB1
:10206800480A42462B46294604F1E000009700F052
:10207800AFFAF0EE680AB0EE480A2B46324631460F
:1020880004F58C700A9702B0BDEC028BBDE8F041F4
:1020980000F09EBA08150124703E01082DE9F041B0
:1020A8001C46DFF88C80214E00270D4620462DED7A
:1020B800028BB0EE408A82B0F0EE608A0A9B00F094
:1020C80051FBB0EE480AF0EE680A434642463146F4
:1020D80004F17000009700F07BFAF0EE680AB0EEA9
:1020E800480A33462A46294604F1A800009700F01A
:1020F8006FFAF0EE680AB0EE480A434642463146A7
:1021080004F1E000009700F063FAF0EE680AB0EE20
:10211800480A33462A46294604F58C700A9702B0C5
:10212800BDEC028BBDE8F04100F052BA081501245D
:10213800703E0108024B00F01F0053F82000704762
:102148006C4001082DE9F04F02234FF0FF36DFF80D
:10215800B8C228217E4D28207E4C002228274FF027
:10216800030BCCF804304FF0010A4FF0040EDFF8EF
:102178009C92DFF89C82C5E90131C4E90131CCE9C0
:1021880002167549886075484B6043607449C0E918
:1021980002722420734F4B608860C7E9013072488F
:1021A800724FC0F804B07248C7F804B020602860C5
:1021B8006A48C4E903266F4CCCF80040DFF854C2E3
:1021C80004602A24C1F800C0DFF84CC2654966489B
:1021D800C1F800C0DFF844C25F49BC608460664C47
:1021E800C5E903623D46654FC5F800C02425DFF800
:1021F80030C2C0F800C05E48C1E90322086024214B
:102208005F4881605F4943608D603625CE60076016
:10221800C2602820C1E900735B495C4F88605C4854
:102228004B600860CA605B49C1E900032820C1E926
:102238000206594959484B6043600B4628211C60E7
:10224800996001462820DE600C60554B886020208C
:10225800CA602021C3F804A099605249DE60196061
:10226800514B524CC3F804A0986019603621DA60CB
:1022780020234F48C4F804B0C7F804B0C0E901A34C
:102288003423BB604B4B99604B49C3F804E08D6025
:102298004A4DDA601D604A4BCE60C3F804E0494BF2
:1022A800C1E9005E05253E21A3F80CA0C3E9015150
:1022B8004549052519600521444B596044499A81CF
:1022C8004D603E259D608D603F4D1D60414B0D600A
:1022D800036026233A48A3603F4B23603F4B404CA2
:1022E8003B602E2383603F4B03604FF48073C8F834
:1022F8000C2034228B813423C8F80820C9F8083010
:10230800394B3A4AC9F80030C8F8003039233849FF
:102318009360384B384813603F23C2F804E0062224
:102328008B60364B4A603A220B602921344BC9F83E
:102338000C600360334BC0F804B0C9F804A0C8F8B7
:1023480004A0C4F804E08160A2602360BDE8F08FB7
:10235800581601246C16012480160124181601242D
:1023680028160124341601244C1601244016012491
:10237800B43F0108783F0108D83F0108C03F010871
:1023880094160124A4160124B41601242C17012440
:10239800CC3F0108C4160124D4160124E4160124F4
:1023A800F4160124E43F010804170124201701242E
:1023B8001417012438170124541701241440010864
:1023C80048170124641701242C40010874170124BC
:1023D800C8170124F03F0108FC3F01080840010824
:1023E800B01701242040010838400108BC17012417
:1023F800D81701245C400108A4170124684001088B
:10240800444001085040010808160124841701249B
:1024180094170124843F0108903F01089C3F01085C
:10242800A83F010808B52DED028B08EE101AB0B1CF
:10243800483ABAEE000A9FED107A07EE902AF8EEB5
:10244800E77AA7EE870A11F07FFAB8EEC88A28EE75
:10245800000ABDEC028BBDE8084011F075BA02EB2A
:1024680082026FF00C0002EB820300EE103AB8EE25
:10247800C00A11F0D1FAE8E70100DB3D2DE9F0418F
:102488001E460B780D46804614462DED048BF0EE63
:10249800408A9DF82C700160002B7CD0444BD1ED14
:1024A800017A93ED057A67EE877AFDEEE77AF8EE22
:1024B800E77AFDEEE77A17EE903A95ED028AC8E9D9
:1024C80002330023C8E9043395F83020944254D2EB
:1024D80095F93210121B31B12AB195F83100FFF786
:1024E800A1FF28EE008AB7EE009A6A78314B9FED7B
:1024F800320AB4EE498AF1EE10FA39FE088A7F2EC4
:1025080028BF7F26072AC6F17F0628BF072207EEC5
:10251800906A03EB8203F8EEE77A93ED007A67EEB0
:10252800877A27EE800A11F00FFA752CAB78F0EE57
:10253800409AA8BF7524152CB8BF1524C4F11504FA
:1025480003FB04F400EE104ABAEEEC0BB7EEC00B36
:1025580011F0FAF968EEA98AF0EE400A3A4605F158
:102568000C0108F11C0028EE880AFEF7B3FD88ED7F
:10257800069ABDEC048BBDE8F08195F93410A21AD7
:102588000029B0D0002AAED095F83300FFF74AFFF3
:1025980028EE008AA7E7DDED0A7A91ED017AF8EED8
:1025A800E77A67EE877AFDEEE77A17EE903A84E7E6
:1025B800B0950024FC4001080000003C437F022B3A
:1025C80000D9704701F10C021C300321FEF7CABD87
:1025D800D0ED027AF8EEE77A2DE9F04F27EE800A7F
:1025E800054698469246EB688946FDEEC07A6A68C9
:1025F800DFF86CB117EE900AC01A48BF1F302DEDF6
:10260800028B431185B095ED068A01932B680292DF
:10261800DA78504B03EB820393ED000A20EEC00AF0
:10262800D5E9046411F090F9D5ED065AEB684FF03E
:10263800000C30EE650ADFED485ADDF808E0184670
:10264800039360EE255A49E093407344019A864407
:1026580095ED0A7A13F0804F4FEAE3771044D5EDF1
:10266800097A18BFDB43D5ED0B6A77EE277A9FED21
:102678003B6AC3F30952C3F30F1366EE876A0CF182
:10268800040C511C5BF8222027EE887ABCF1800FDD
:102698005BF8211038EE258AC5ED0A6A3446A1EBAD
:1026A8000201FAEC016A08F1040889B201FB03F39C
:1026B80002EB23433B4483EA070307EE903AF8EE24
:1026C800E77A67EE877AB0EE667AA7EE867AFDEE4D
:1026D800E77AA9EC017A0DD017EE906A109A3319AF
:1026E800002AB1D1D8ED007AFEEEC17A17EE903A01
:1026F800DB00AAE7019C2A68C4EB04116E61C5EDF2
:10270800047AC1EB4111DDE902300344194423186E
:1027180000EB4410C3EB4313E860286A0B4401380C
:102728006B60286218B9697F0131022906DD85EDE1
:10273800068A05B0BDEC028BBDE8F08F0C3205F1BE
:102748001C00FEF70FFD85ED068A05B0BDEC028B77
:10275800BDE8F08FEC4001080000003D00000034A7
:102768001C410108D0ED027AB8EEE77A2DE9F04F66
:1027780027EE007A1546C2680446994E8946FDEE52
:10278800C77A2DED048B89B0F1EE609A9FED959A8A
:102798000393436806920493C36B059317EE903A2C
:1027A800D0ED107A9B1A426CB8EEE77A48BF1F3317
:1027B800079267EE007A5B110093FDEEE77A17EE59
:1027C800903A9B1A48BF1F335B1101930368DB786B
:1027D80006EB830393ED000A20EEC00A11F0B4F86B
:1027E800A36B94ED068ADB7830EE480A06EB830388
:1027F80060EE098A93ED000A29EE800A11F0A4F828
:1028080094ED146AAE46784830EE460A0EF180031D
:1028180020EE095A0293D4E90451DDE90678DDE98E
:1028280004C601E017EE905A039A2944634612B190
:1028380001FA02F3634413F0804F4FEAE37B009AF6
:10284800BC4418BFDB4394ED0A7A1744D4ED097AE7
:10285800C3F30952C3F30F1377EE277AD4ED0B6A4B
:1028680002F1010A50F8222066EE876ADFED5F5A0E
:1028780050F82AA027EE887A294638EE288AAAEB4B
:10288800020AC4ED0A6AD4ED196A1FFA8AFA03FB30
:102898000AF302EB2343019A5B4483EA0B0307EE36
:1028A800903AF8EEE77A67EE877A94ED187A66EE52
:1028B800876AFEEEEC7AC4ED186A17EE903AD4ED0A
:1028C800177AFEEC016A06EBC3034644904477EEA0
:1028D800277A5A004FEAE37B48BFDB4327EE867A24
:1028E80036EE056AC3F30952C3F30F1302F1010A66
:1028F80050F8222050F82AA0AAEB020A1FFA8AFAF6
:1029080003FB0AF302EB23435B4483EA0B0307EE62
:10291800903A029BF8EEE77A734567EE877AB0EE55
:10292800667AA7EEA57AFDEEE77AA9EC017A7FF43C
:1029380079AF049B65611D46069B05991A461D449F
:10294800009B0846019FC3EB03161A44C3EB4313CD
:102958000799C6EB4616C4ED047A1344C2EB42123B
:1029680035440844E36039442A44C7EB471384EDEF
:10297800068A6260C7EB07120B44C1EB4111C2EB38
:10298800421284ED146A63640244236A1144013BD1
:102998002268E16323621BB9617F0131022918DDD6
:1029A800A36DA26B013BA36523B994F855100131BF
:1029B800022904DD09B0BDEC048BBDE8F08F0C32B0
:1029C80004F1540009B0BDEC048BBDE8F04FFEF7EC
:1029D800C9BB0C3204F11C00FEF7C4FBE0E700BFE2
:1029E800EC4001080000003D1C41010800000034D3
:1029F800D0ED027AB8EEE77A2DE9F04F2DED068B8F
:102A08008FB027EE007A1646C268079304464368DB
:102A1800FDEEC77A0B920D460893F1EE60AAC36BE0
:102A2800CD4F0993436F9FEDCDAA0A9317EE903AC5
:102A3800D0ED107A9B1A426CB8EEE77A48BF1F3384
:102A48000C9227EE007A5B110593FDEEC77A17EE1C
:102A5800903AD0ED1E7AB8EEE77A9B1AC26F48BF5B
:102A68001F3367EE007A0D925B11FDEEE77A039350
:102A780017EE903A9B1A48BF1F335B110493036803
:102A8800DB7807EB830393ED000A20EEC00A10F011
:102A98005BFFA36BD4ED068ADB7830EE680A07EBA0
:102AA800830360EE0A9A93ED000A2AEE800A10F07A
:102AB8004BFF236F94ED148ADB7830EE480A07EB5E
:102AC800830720EE0A9A97ED000A2AEE800A10F092
:102AD8003BFF94ED226A2369B44630EE460A02951C
:102AE800019306F18003616960EE0A5A9C4D0693D2
:102AF800DDE90C89DDE90A67DDE908AEB1E0019B93
:102B08000B44934053445A004FEAE370059ABA4481
:102B180048BFDB4394ED0A7A1744D4ED097AC3F32E
:102B28000952C3F30F1377EE277AD4ED0B6A511CC1
:102B380055F8222066EE876A9FED8A5A55F82110CB
:102B480027EEA87A78EEA98A891AC4ED0A6AD4ED24
:102B5800196A89B201FB03F302EB2343039A034486
:102B6800434007EE903AF8EEE77A67EE877A94EDFD
:102B7800187A66EE876AFEEEEC7AC4ED186A17EEEC
:102B8800903AD4ED177AD4ED276A0EEBC303C64406
:102B9800904477EE277A59004FEAE37048BFDB4349
:102BA80027EE887A38EE098AC3F30952C3F30F1364
:102BB800511C55F8222055F82110891A89B201FBB9
:102BC80003F3019902EB23430344434007EE903A91
:102BD800F8EEE77A67EE877A94ED267A66EE876AEA
:102BE800FEEEEC7AC4ED266A17EE903AD4ED257A1B
:102BF800FCEC016A06EBC3034E4477EE277A5A00D1
:102C08004FEAE37B049A48BFDB4327EE867A914478
:102C180036EE256AC3F30952C3F30F13501C55F857
:102C2800222055F82000801A80B200FB03F302EB43
:102C380023435B4483EA0B0307EE903A029BF8EECA
:102C4800E77A67EE877AB0EE667AA7EE857AFDEEC8
:102C5800E77AA3EC017A0293069B634507D0CDED92
:102C6800017A079A002A7FF44AAF53464BE7099A3C
:102C78000A9816460C9A6161844611461644039ACE
:102C8800059F11440D9A089B944404981D460B9B7C
:102C9800E646C7EB071C1D443B44CCEB4C1C0244E6
:102CA800C7EB4717C4ED047AAC44C4ED068A1F4449
:102CB800C3EB431384ED148A634484ED226AE7600E
:102CC8006360039BC3EB0315C3EB4313C5EB4515C7
:102CD8000B44C1EB4111354463642944049BE1630F
:102CE800C3EB0311C3EB4313C1EB41111344C2EB14
:102CF80042120EEB0100E367236A10442268013B8D
:102D0800606723621BB9617F013102292CDDA36D45
:102D1800A26B013BA36523B994F855100131022930
:102D280028DDD4F89030226F013BC4F8903023B9E5
:102D380094F88D100131022904DD0FB0BDEC068B2B
:102D4800BDE8F08F0C3204F18C000FB0BDEC068B9F
:102D5800BDE8F04FFEF706BAEC4001080000003D60
:102D68001C410108000000340C3204F11C00FEF77D
:102D7800F9F9CCE70C3204F15400FEF7F3F9D0E787
:102D8800F8B50022344C05463449026000F11C03B2
:102D9800027102614461C0E9022200F29C70A961DB
:102DA800783300224FF07C51834243F8502C23F8AB
:102DB8004C2C43F8741C43F8482C43F8042CEFD1EE
:102DC80042F24C0605F69C1405F64C012E440022EE
:102DD80001200B4601F8302C01F82F2C41F8242C47
:102DE80001F81C0C41E90B2238330022A34243F8B6
:102DF800342C03F81C2CF7D101F5C07103F5C0740D
:102E0800B142E4D142F21C0042F2A81445F2A826CD
:102E180028442C442E4400F0F1FD204604F5C474E7
:102E2800FEF7FEF8A642F8D146F628372F4430467A
:102E380006F5C476FEF7F4F8BE42F8D105F5C043AE
:102E4800002246F64030C3F8282B2844C3F82C2B20
:102E5800FEF7E6F82846F8BD3EC3AE47C92F164C24
:102E6800F8B542F2A815074600F11C0400F29C765A
:102E78000544204678342946FDF7C2FFB442F8D10C
:102E880020220021204610F0BDFF6022002107F219
:102E9800BC7010F0B7FF46F6303100237A187B502B
:102EA80053609360D360F8BD2DE9F041DFF854809A
:102EB80007460E4600F11C04424600F29C7502E0EB
:102EC8007834A5420AD0636F002BF9D020467834B5
:102ED8003146FEF701F8A5423246F4D142450AD000
:102EE800386910B10138386108B1BDE8F081BDE832
:102EF800F041FDF7A3BD4FF480720021304610F079
:102F080081FFEDE7703E0108C1EB0113114600EBAC
:102F1800C30310B5044603F11C00FDF7C3FF30B12D
:102F2800A1684B1CA360BDE8104000F0FBBB10BDBE
:102F380010B5D209044603290DD8DFE801F03102A3
:102F48001D0D42F21C00204404F5C04400F060FD51
:102F58000023C4F8283B10BD1F2AFCD84FF4C473C3
:102F680042F2A81142F21C0003FB02422044114421
:102F7800BDE8104000F068BD1F2AECD84FF4C473B8
:102F880042F2A81142F21C0003FB0242204404F55D
:102F9800C044114400F04EFD0023C4F8283B10BD86
:102FA800012AD8D803799A42D5D00368012A00F5B6
:102FB800C041C3EB031306D0D1F82C1B00EBC303AD
:102FC800D961227110BD00EBC303DB69C1F82C3B4A
:102FD8002271F7E702F4404CBCF5804F38B504463F
:102FE80015D0BCF5004F00D038BDC2F3C61502F0AD
:102FF8007F0C062D16D9072DF6D19E4603689942F7
:10300800F2D172466146BDE83840FFF791BF47F6F6
:10301800FF739A42E8D101F57373002200EB430174
:103028008A8038BD02689142DED142F21C002946EE
:103038006246204400F0C2FE04F5C0410023C1F8F6
:10304800283B38BD652A00F2A580612A8C4600B568
:1030580086461BD80A2A00F093801FD9262A42D117
:1030680001EB410203F07F0300EB410C00EB420E41
:10307800BEF8BC2722F07F0292B21343AEF8BC37E9
:103088005DF804EBBCF89C27FFF7A4BF633A022A5B
:1030980000F28180DFE802F053294100062A60D05F
:1030A800072A20D1DB01C1EB011C07EE903A00EBA7
:1030B800CC0EFBEEC97A9EED087ADEED0A5A67EE71
:1030C800A77A9EED0B6ADEED0C6A27EE877ACEEDC5
:1030D800097A67EE257A26EE277A66EEA77A8EEDCC
:1030E8000D7ACEED0E7A5DF804FB0CEB4C0003F084
:1030F8007F030EEB4C0C0EEB400EBEF8C02722F0FF
:103108007F0292B21343C3F30D02AEF8C03742F404
:103118008043ACF89C375DF804FBDB010CEB4C00FA
:103128009BB20EEB4C0CC3F30D020EEB400EAEF847
:10313800C03742F48043ACF89C375DF804FBDB01F0
:10314800204A0CEB4C009BB20EEB4C0CC3F30D0168
:103158000EEB400E0A43AEF8BE37ACF89C275DF87C
:1031680004FB01EB4102DB0100EB420E00EB410CDA
:10317800AEF8BC375DF804EBBCF89C27FFF72ABF14
:10318800C1EB011C5DF804EBD90100EBCC001C304D
:10319800FDF7FEBE70470CEB4C0203F07F030949B4
:1031A80000EB4C0C00EB420EBEF8BE2722F07F026B
:1031B80092B21343C3F30D02AEF8BE371143ACF815
:1031C8009C1790E70080FFFF037913B103688B42D7
:1031D80007D01F2A06D9074BC1EB011100EBC1002C
:1031E800C36170474FF4C47C42F2A8130CFB02027F
:1031F8001344F1E7E4170124C1EB0113114600EB76
:10320800C3001C30FDF7FCBEC3682DE9F04104463D
:103218001646E3B9052A02D8CBB9BDE8F0810B7888
:10322800432BFAD148788B78002808BF092BF4D1B2
:10323800C8780B7903EBC013B3F5805FEDD104F5C3
:10324800C043F02083F8C80C01200346E060F01862
:1032580041F20705A84203D90023E360BDE8F081E5
:1032680046F6C84032462044184410F0BDFDE368D5
:10327800F218AA42E260D0D142F21C0746F6CE46C6
:1032880042F2A81545F2A82804F5E043F72227449E
:1032980026442544A04483F8CF2C3146384600F014
:1032A800EFFB294605F5C475384600F0CDFB80369E
:1032B800A845F2D1384600F0ABFB002304F5C04125
:1032C8000A22C1F8283BC4E90332A6E7F8B500F59D
:1032D800C0468446D6F8285BA5B145F2A82341F23A
:1032E800F8620344EB1A93420AD8DB10254946F6E4
:1032F800303201FB030C1CF8023001330CF80230A9
:103308002846F8BD45F2A8206044814220D246F6FE
:103318002F320023624412F8014F34B10133102BCD
:10332800EED012F8014F002CF8D14FF4C47546F6D0
:103338003032012105FB03056344995442F21C0015
:103348002946604400F080FB2846C6F8285BF8BD93
:1033580046F6283363449942D9D20A1A094F46F6E9
:103368003034D31007FB03C31F5D002FCFD10029D2
:10337800CDD041F2F8600D468242C1D801221A55DB
:10338800DCE700BFD1581F1AC1EB011C114600EB46
:10339800CC0C38B504460CF11C00FDF783FD00B1D8
:1033A80038BDD4F8203842F21C0EA56804F61C007B
:1033B80094F81D18A644A5EB030C04F69C130CE026
:1033C800624534BF002401F0010414B118462146B7
:1033D800944603F5C0737345E2D05A685C78AA1A1C
:1033E800002CEDD1624528BF41F001010029F0D041
:1033F800214694461846ECE7F0B51D46037985B09A
:10340800044623B103688B4201D005B0F0BD2046C5
:10341800C1EB01160392FFF7B7FF45F2A823C16875
:1034280004EBC60607462344039A1C3699420ED27B
:1034380000212379012B1FD02B46A5683146384639
:1034480000950135A56000F0F1F805B0F0BD46F62D
:10345800283020448142EBD2CB1A0D4846F6303C46
:10346800DB1000FB034313F80C000138C0B203F86B
:103478000C000028DDD0DBE720460392FFF726FF8B
:103488002368039AC3EB031304EBC303D861D3E7A0
:10349800D1581F1A0148FDF7C3BD00BFE417012426
:1034A8008388D3B94A6803681A44026009780529F1
:1034B80009D8DFE801F0174208293703002A01DD9F
:1034C800002B47DD836843F001036FF01E0007EE11
:1034D800903AB8EEE70A10F09FBA013B9FED240A34
:1034E800838070475A006FF01E004CBFDA431A46BB
:1034F800002BB8BF5242520042F0010307EE903A47
:10350800B8EEE70A10F088BA43F0010300EE103A6B
:103518009FED157BB8EEC00B20EE070BB7EEC00B86
:1035280010F016BB9FED130A002BDFED137A6FF036
:103538001E0020FE270A10F06FBA43F001036FF057
:103548001E005B4243F0010307EE903AB8EEE70A2B
:1035580010F062BA82680949094B01FB02338360A3
:10356800B1E700BFAFF30080182D4454FB21193E8A
:10357800000000000000004F000000CF0D66190099
:103588005FF36E3C0B7870B5072B09D8DFE803F0C2
:10359800091308212908300491F88B30002B3CD0FE
:1035A80070BD00680A7A4968FFF7AEFC0020BDE8E4
:1035B8007040FDF733BA4C7A4D680A7A24B3006834
:1035C80023462946FFF718FF0120BDE87040FDF7A4
:1035D80025BA4B7A0A7A00684968BDE87040FFF757
:1035E80031BD0A7A00684968BDE87040FFF7ECBD54
:1035F8004B7A0A7A006802EBC3124968A2F50052B6
:10360800BDE87040FFF7F8BD29460068FFF77CFC6D
:103618002046BDE87040FDF701BA91F88A200A31CA
:103628000068BDE87040FFF7EFBD00BF2DE9F04727
:10363800054680680E46174688429A462DED028B4D
:1036480082B00C9C64D010B12946FDF713FC4FF0F2
:10365800010929463046FDF703FCAE60336805F1E1
:103668003006EB601878FEF765FDF7EE000A0123D7
:10367800E9684A466C60B0EE600A1431286105F1C9
:1036880014006B7000242F70FDF724FD244BB2EE5C
:10369800080A93ED068AA7F1450307EE903AF8EE7B
:1036A800E77A87EE800A10F04FF92B6928EE000AB6
:1036B800B5EE007AFDEEC07A17EE908AD3ED017A66
:1036C800F8EE677A87EE278A00E02B694FF0010C45
:1036D8009A68B7EE000AE9680CFA04FC013430462F
:1036E80053461CEA020FC4EBC40C3A46CDF80490CA
:1036F80000FE080A01EBCC01CDF800803836FEF751
:10370800BDFE062CE1D102B0BDEC028BBDE8F0870E
:1037180095F80090B9EB020918BF4FF001099DE731
:10372800B0950024F8B5382405460F46A0F10806E0
:10373800E968301921443834FEF740FFB4F5C47FF6
:10374800F6D100236F606B70F8BD00BFF0B5D0ED07
:10375800097A1546836904460E46C268013B2DED79
:10376800048B90ED089AB0EE408A85B0D0ED078AB8
:1037780067EE897A8361C0ED087A1BB9437D591CCD
:10378800022913DD206968B12A46E56838EE890AFE
:1037980004F130036C7831460768009420EE080A7B
:1037A8003C68A04705B0BDEC048BF0BD1432143062
:1037B800CDED030AFDF7D6FCDDED030AE2E700BF15
:1037C800132910B52DED028B40DC264B53F8211040
:1037D8004942DFED257A132A07EE101AB8EEC78A98
:1037E80028EE278A3ADC1F4B53F8224000EB80036F
:1037F80000EBC300001100EE100ABAEECE0BB7EED4
:10380800C00B10F0A1F862429FED176A07EE902AEC
:103818009FED167ADFED166AF8EEE77A20EE077A62
:10382800A7EEC68AB0EEC88A88EE070AB4EEE60AA2
:10383800F1EE10FA0DD4DFED0F7AB4EE670ABDECA5
:10384800028BF1EE10FA37FE800A10BDC1F1630158
:10385800BEE7BDEC028BB0EE660A10BDC2F1630490
:10386800C4E700BFAC510108C2A8403F3255903EA2
:103878003FC3AE3A8941A04111280AD8144B1B56C0
:10388800803B00EE103ABAEEEC0BB7EEC00B10F02E
:103898005BB8512808D8323800EE100ABAEEEC0BA3
:1038A800B7EEC00B10F050B862280DD8084BC0F125
:1038B80063001B56C3F1800300EE103ABAEEEC0B1E
:1038C800B7EEC00B10F040B8B7EE000A10F03CB8E5
:1038D8009851010800000000F8B506790C46C17936
:1038E8000546632E00786F7928BF6326632928BFB1
:1038F80063216328324628BF6320632F28BF6327CC
:10390800FFF75EFF84ED050A314668783A4663287A
:1039180028BF6320FFF754FF84ED060AAB78632BBA
:1039280028BF632303EB830203EBC2031B1100EEE2
:10393800103ABAEECE0BB7EEC00B10F005F8DFED7B
:103948002C7ADFED2C6A20EE270A9FED275BB7EE75
:10395800C00A85EE007BB7EEC77BB4EEE67AF1EEDF
:1039680010FA38D4DFED247AB4EE677AF1EE10FA63
:1039780037FE877A84ED077AEB78632B28BF6323B9
:1039880003EB830203EBC2031B1100EE103ABAEEFD
:10399800CE0BB7EEC00B0FF0D7FFDFED157ADFEDDA
:1039A800156A20EE270A9FED105BB7EEC00A85EE78
:1039B800007BB7EEC77BB4EEE67AF1EE10FA0DD4D1
:1039C800DFED0D7AB4EE677AF1EE10FA37FE877AFA
:1039D80084ED087AF8BDB0EE667ACBE7B0EE667A89
:1039E80084ED087AF8BD00BF8DB7955E9B493B40D2
:1039F8003255903E3FC3AE3A8941A04110B50446C6
:103A0800FDF70EFB3F23204684F8883110BD00BF28
:103A180010B5E2B004466846FDF702FB4FF4C472E5
:103A28006946204610F0E0F93F2384F8883162B0F7
:103A380010BD00BF10B54FF4C472044610F0D4F99D
:103A48003F2384F8883110BD0B464FF4C4720146F9
:103A580010B50446184610F0C7F90122034694F839
:103A680088C100F5A8701CEA020F4FF0000103F1AD
:103A780038034FEA420208BF99609842F3D110BD5B
:103A88002DE9F04F0F4680462DED028B83B007F1EC
:103A98000806FFF7BDFF08F1480407F166033D4635
:103AA80001932A7C95F80CB0EB7B632A4FEADB0B79
:103AB8004FEA530128BF6322BBF10E0F03F0010048
:103AC8000B4628BF4FF00E0B1F2904F8100C28BF17
:103AD8001F23002840F03C81002900F0348107EEC4
:103AE800903A07EE103AF8EEE77AB8EEC70B07EE11
:103AF800102AB8EEC77A9FEDA66B27EE277AB7EEA5
:103B0800C77AA7EE060BB7EEC08BA54B9FEDA50AAB
:103B180013F90B3007EE903AF8EEE77A87EE800A51
:103B28000FF012FF20EE080A04ED030AAA7B002A10
:103B380000F0E980632A134628BF6323132A00F2A2
:103B48002081994A52F823305B4200EE103ABAEECF
:103B5800EE0BB7EEC00B0FF0F7FE04ED020AA4F16E
:103B6800040B6B7BA6F10409A2469B08072B28BF10
:103B7800072304F80F3C6B7B03F0030304F80D3CA8
:103B88002B7B03F0070304F80E3C19F8013B9FED6B
:103B9800870A632B184628BF63207BB1132B824A00
:103BA800C0F1630398BF52F820305B4200EE103A30
:103BB800BAEEEE0BB7EEC00B0FF0C6FE4E45AAEC00
:103BC800010AE2D1E3685946284644F8043CFFF765
:103BD80083FE697A002979D1AB7A002B40F0968070
:103BE8003C22194618469C4684F824301135019B1E
:103BF800113684F8202038349D4204F8170C04F854
:103C0800161C04F815CC7FF44CAF97F86E30684951
:103C18001F2BDFED686A28BF1F2388F8003097F84C
:103C28006F3013F0070318BF023388F8013097F894
:103C3800723097F87420632B4FEA121228BF63235F
:103C4800072A07EE903A28BF0722F8EEE77A01EB39
:103C5800820292ED007A67EE877A87EEA67A88ED7F
:103C6800017A97F87320632A134628BF63234F2AE3
:103C780040F28A80504AC3F1630332F9133007EEE9
:103C8800103ABAEECC7B07F16A0408F114066E37D5
:103C980008F11805B7EEC77B88ED027A14F8010B16
:103CA800632828BF6320FFF7E7FDA742A5EC010AB8
:103CB800F4D1D8F8243031460198C8F8143003B04C
:103CC800BDEC028BBDE8F04FFFF706BE95F80BE0A0
:103CD80063292A7A0EF0030028BF6321632A00F1C2
:103CE800FF3028BF6322012802F115028CBF002093
:103CF80001201EF0020F00D14942AB7A49B26BB9DC
:103D0800D2B29C4670E79FED290A26E72A7A084630
:103D180095F80BE0632A28BF63221532CEF3810C95
:103D2800632BD2B20CF1FF3C28BF6323BCF1010F17
:103D38008CBF4FF0000C4FF0010C1EF0080F08BFAD
:103D48005B425BB250E7B6EE000BF6EE007ACEE6C9
:103D580003F0030307EE902A00EE103AB8EEE77B73
:103D68009FED0B5BB8EEC00B9FED0B6BA7EE050B41
:103D780020EE060BB7EEC00B0FF0E6FDB0EE408A62
:103D8800C3E6C3F16303DFE61BB278E7AFF3008055
:103D98007B14AE47E17A843F000000004F930A404D
:103DA8004051010800009644AC5101080000000091
:103DB800785101080000C64250510108052930B564
:103DC800044683B015D8142A17D0092A62D90D2AB7
:103DD80044D9DD090E3A632D284628BF6320052AF9
:103DE80009D8DFE812F0EE00CE00B300A9000C01FC
:103DF8009F0006290CD003B030BD0122002B75D0DE
:103E080090F8883102FA01F1194380F88811F2E735
:103E1800092A40F26B81DB090A3A632B194628BF4D
:103E280063210B2AE7D801A050F822F04740000888
:103E3800FF3D0008FF3D0008FF3D0008FF3D00086A
:103E4800FF3D00088B400008514000083D40000835
:103E5800FF3D0008FF3D00081B400008C1EBC10002
:103E68000B2A4FEAD3134FEAC10504EBC00046D82A
:103E780090F96AE000F05081632B28BF6323BEF1FC
:103E8800000F9C46C0F25E81691A04EBC10080F8FD
:103E98006AC0B0E7DB09632B184628BF6320032AF2
:103EA80040F20F81092AA6D0002B00F05181132B74
:103EB80000F28781D54B53F82000404200EE100AEB
:103EC800BAEEEE0BCDE90012B7EEC00B0FF03CFDD9
:103ED800DDE90012042AC1EBC10100F03C8102EBCC
:103EE800410204EB820080ED0D0A84E790F88831E6
:103EF80002FA01F123EA010180F888117BE70D2A13
:103F080090F96CE000F06381632B28BF6323BEF156
:103F1800000F9C46C0F21681691A04EBC10080F8B4
:103F28006CC068E701310728C1EBC10128BF072031
:103F380004EBC104A0705EE701310328C1EBC101A5
:103F480028BF032004EBC104E07054E7002D00F003
:103F58003581132D00F25681AC4B53F820305B426B
:103F6800009100EE103ABAEEEE0BB7EEC00B0FF070
:103F7800EBFC0099C1EBC10104EBC10080ED100A14
:103F880039E7C1EBC1010020C3F30A02DB0A04EBE5
:103F9800C10484F8380000F00E8142F40062A3F1F5
:103FA800180002F00F019A4B33F9113003EB02337A
:103FB80000EE103AB8EE400A0FF02EFD84ED0F0A1D
:103FC80019E7C1EBC1010120C3F30A02DB0A04EBC4
:103FD800C10484F8380000F0EB8042F40062A3F1D9
:103FE8001800130300EE103AB8EEC00A0FF014FDE3
:103FF800DFED887A20EE270A84ED0F0AFBE601310F
:104008000728C1EBC10128BF072004EBC104607079
:10401800F1E64F2B40F2F2807F4BC1F1630133F997
:10402800111007EE101ABAEECC7BB7EEC77B84ED01
:10403800027AE0E6052928BF05212173DBE6092974
:1040480028BF09216170D6E6C1F163014FF6FF72FE
:104058009FED727A01F00F03090903F110008B1C20
:1040680000FA03F31A44B2FBF3F307EE903AF8EEC2
:10407800E77A67EE877AFCEEE77A17EE903AE38103
:10408800B9E6002B00F0BC804FF4257303FB01F167
:10409800B1F5214F4FEA112280F0DE8002EB820356
:1040A8009FED637A02EB43031B0407EE903AF8EEA8
:1040B800E77A67EE877AFDEEE77A17EE903A2361A2
:1040C80099E60B2B4CD87FD0831CDFED557A00EE98
:1040D800103AB8EEC00A20EE270AC1EBC10102EB84
:1040E800410204EB820080ED160A84E6032A49D9CE
:1040F800092A3FF480AE43F3C613009203F132005D
:1041080040B2FFF7B9FB009A042A00F0B18004EB33
:10411800820282ED010A6EE68EEAEE7CACEBEE7C62
:1041280003F0030E0EF1FF3E5FFA8CFCBEF1010FA7
:104138008CBF4FF0000E4FF0010E80F869E0980731
:104148003FF5A2AE0B2ACCF1000C7FF69DAEE3E65C
:104158009FED340ABEE604EBC10080ED110A4AE681
:10416800633800EE100ABAEEEE0BCDE90012B7EE96
:10417800C00B0FF0E9FBDFED2D7ADDE9001220EE30
:10418800270AAAE7DB09632B194628BF63210B2BF3
:1041980052D86AD08B1CDFED227A00EE103AB8EEC6
:1041A800C00A20EE270A04EB820282ED0A0A22E600
:1041B8006FF0160015E76FF01600F2E69FED190A8A
:1041C800D8E6C0F1630078E69FED1A0A85E78EEA23
:1041D800EE7CACEBEE7C03F0030E0EF1FF3E5FFAD3
:1041E8008CFCBEF1010F8CBF4FF0000E4FF0010E9A
:1041F8009B0780F86BE03FF58FAEA3E709B210E7A5
:10420800094B5CE7C0F16303A9E600BFAC510108A4
:1042180020510108000000435051010800497A402C
:104228003FC32E3A0000000013D002008941A0418C
:1042380034EC823ED7EA183C6339009200EE101A3B
:10424800BAEEEE0BB7EEC00B0FF07EFB5FED097A0E
:10425800009A20EE270AA6E7A2F1A0031FED0C7A28
:104268009B080B3302FB03F31EE71FED0E0A9AE7C8
:1042780084ED050ABFE500BF143001F031BA00BF74
:10428800253001F00BBD00BF10B540F203338EB0EE
:1042980000244FF60B7240F20341ADF8083009A82C
:1042A8000123ADF81020ADF824202246ADF80C10FB
:1042B8000094029907940C94CDE90544CDE90A4489
:1042C80001F014FB04A8012322460399009401F08D
:1042D8000DFB09A801F0F0FB10B901200EB010BDCC
:1042E80004A801F0E9FBA0420CBF022020460EB052
:1042F80010BD00BF2DE9F04103239AB00127002427
:104308000646CDE914373B4BCDE9104340F2045340
:10431800CDE91647ADF84830FFF7B6FFB842054675
:1043280025D0022845D040F60132334B0DF12C0838
:104338001894ADF82C200B981997CDF84A3000F056
:10434800E3F810A906F13C0002F0F2FB302003224A
:104358004FF07E5341460D930E93CDE90B02F26B5D
:1043680006F1140001F02AF91AB0BDE8F081102313
:10437800214A06A906908DF828300DF12C081F4B0C
:10438800CDF84A2007930294CDE91804CDE9080432
:1043980002A801F003FE0823029A03A94046ADF8DB
:1043A8000C508DF80E40049505930B9400F0ECF832
:1043B800C7E700200121104B0DF12C083A46009464
:1043C800CDF84A304FF60B730C94ADF82C302346D9
:1043D800CDE9180140F601314046ADF818100699AC
:1043E800CDE90D4401F082FA2146404601F070FB08
:1043F800A7E700BF04020404040604030704010B32
:104408002DE9F04704462DED028B82B000294DD0EE
:10441800012140F2011200230091ADF804208DF82B
:104428000630364A0127364B04F10409354904F1B0
:104438002908626040F20272A36040F60663E160F8
:1044480004F1250AA4F82520A4F82930278284F845
:10445800277084F82B7003F0A9FF054603F00CFEC3
:104468006946064650BB4DB304F130008DF806701E
:1044780003F024FF072D3CD104F114052046FFF773
:1044880039FF284601F028F92846B0EE408A01F0A5
:1044980011F9D0ED007AF8EE677A88EE277A84ED84
:1044A8000E7A02B0BDEC028BBDE8F08740F2011332
:1044B80000918DF80610ADF80430B2E704F1300031
:1044C80003F0FCFE072D11D04946204601F0B0FF4D
:1044D8000EB9002DD0D1504601F004FB404601F042
:1044E80001FB04F1120000F079F9C5E7002EF2D1C2
:1044F800C2E74946204601F09BFFBDE705080509CC
:1045080005070506050A060610B584B0034601240A
:10451800ADF8040003A8ADF80C30ADF80E4001F07A
:10452800E1FA214603A801F0B9FB204603F0A2FDF9
:10453800002103A801F0B2FB204603F09BFD2146B1
:1045480003A801F0ABFB04B010BD00BF10B5C2F367
:10455800002384B00C46017C8DF80D2043EA440208
:10456800FA2402238DF80C2003AA009401F0ACFD74
:1045780018B10124204604B010BD04460A2003F0F7
:1045880079FD204604B010BD034670B543F8042BEE
:10459800044684B007C983E80700A37983B91A21C0
:1045A8000B461E22FA2523742046ADF80C20022360
:1045B80003AA009501F088FD28B1012004B070BD60
:1045C8001B210B46EDE70A2003F054FD4FF4B852C7
:1045D80000950223ADF80C20204603AA217C01F0A7
:1045E80073FD0028E9D10A2003F044FD41F202726C
:1045F80000950223ADF80C20204603AA217C01F087
:1046080063FD0028D9D10A2003F034FD0422009567
:104618000223ADF80C20204603AA217C01F054FDAA
:104628000028CAD10A2003F025FD0622009502239E
:10463800ADF80C20204603AA217C01F045FD002896
:10464800BBD10A2003F016FD41F20822009502238F
:10465800ADF80C20204603AA217C01F035FD002886
:10466800ABD10A20064603F005FD0095022303AAF4
:10467800217C2046ADF80C6001F026FD00289CD175
:10468800304603F0F7FC009522790C232046002AD7
:104698008DF80C3003AA4FF0020314BF62214221A7
:1046A8008DF80D10217C01F00FFD002885D13046D2
:1046B80003F0E0FC2279D4E902310B43DBB20AB9FA
:1046C80043F0400362790AB143F020030E22FA2531
:1046D8008DF80D302046009502238DF80C2003AA92
:1046E800217C01F0F1FC00287FF467AF0A2003F079
:1046F800C1FC102200950223ADF80C20204603AA25
:10470800217C01F0E1FC00287FF457AF0A2003F078
:10471800B1FC122100950223ADF80C1003AA217CEC
:10472800204601F0D1FC00287FF447AF0A2003F0AF
:10473800A1FC012209212046FFF708FF003818BF15
:1047480001203BE7F0B5102387B0234C0122002558
:104758000126002702A920460195CDE902234FF43E
:104768008052CDE9046709F0F9FD642004F0C4F82B
:1047780002A94FF480522046CDE90467022610278B
:10478800CDE9026709F0EAFD0322102302A92046B9
:10479800CDE9022300230422CDE904234FF48052FB
:1047A80009F0DCFD40F23223042202A90193102310
:1047B8002046CDE90223019A012305924FF4805245
:1047C800049309F0CBFD40F60601204609F0E6FD0A
:1047D800284607B0F0BD00BF741901241C4B002205
:1047E8001C494FF0400C30B5054689B0022059608D
:1047F80007219A601A620124DA620A224FF4006ED5
:10480800DC6006922022CDE9000104200821CDE9D0
:10481800020103201021CDE9040108206946C3E9FB
:1048280004024FF4C072181DC3E906C24FF4805247
:10483800C3E909E209F068FD38B92846FFF782FFA5
:10484800003818BF012009B030BD204609B030BD7E
:104858007019012440410052614A0021D0B5136803
:104868008EB00A91002B40F0B9805E4B01214FF6C3
:1048780083700C2411600221D3F8D420002603276A
:1048880042F48052C3F8D420D3F8D42002F48052E2
:104898000092009AD3F8E02042F01002C3F8E0201A
:1048A800D3F8E02002F010020192019AD3F8E02038
:1048B80042F04002C3F8E020D3F8E02002F04002C2
:1048C8000292029AD3F8E02042F00802C3F8E020EE
:1048D800D3F8E02002F008020392039AD3F8E0200C
:1048E80042F48072C3F8E020D3F8E02002F480722A
:1048F8000492049AD3F8E02042F08002C3F8E02042
:10490800D3F8E02002F080020592059AD3F8E0205F
:1049180042F02002C3F8E020D3F8E02002F02002A1
:104928000692069AD3F8E02042F00402C3F8E02089
:10493800D3F8E0300C9403F0040307930323079A99
:104948000B93CDE9080108A9274805F07BF848F240
:104958003712022308A925480C94CDE90823CDE98C
:104968000A6705F06FF84CF20372022308A9204881
:104978000C94CDE90823CDE90A6705F063F840F205
:10498800FF62022308A91B480C94CDE90823CDE94E
:104998000A6705F057F84FF60C72022308A9164863
:1049A8000C94CDE90823CDE90A6705F04BF84FF6DA
:1049B8003F02022308A911480C94CDE90823CDE948
:1049C8000A6705F03FF82022022308A90A480C9438
:1049D800CDE90A67CDE9082305F034F80EB0D0BD5B
:1049E8006C1901240044025800100258001802589B
:1049F800000C025800200258001C025800140258EB
:104A08002DE9F04FDFF8108406460D46144608F1EC
:104A180018002DED028B89B000AF02F081F9D8F8AB
:104A2800183073B3D8F81C30D8F80490002B4369B9
:104A38000BBF4FF0080A4FF0100A4FF0020B4FF06F
:104A4800040BB9F1000F2AD0A200EA46012B02F1AB
:104A5800070222F00702ADEB020D6846ADEB020D2E
:104A6800694600F03F81022B00F0D680002B6FD002
:104A78002246C847D5462437BD46BDEC028BBDE863
:104A8800F08FD8F81C30002BF5D0D8F804904FF0F0
:104A9800080A4FF0020B4369B9F1000FD4D1FB614A
:104AA800D8F80030BB61002BE5D0D54802F0AAF950
:104AB8006B46BBF1020F786108EE103AFB6900F013
:104AC80083816A465146A2EBC40295466200EA46D3
:104AD800B2FBFBF2AAEBC40085460AEB8200EE4665
:104AE800F861ADEB010DF8690EEB820CC7F810C048
:104AF800EC46ADEB010D00EB8201CCF80400CCF8DC
:104B0800081001EB82013869E946CCF80C1000EB7B
:104B18008201CCF800A001EB8202C9E900E0C9E9F2
:104B28000212012B00F06483022B00F06C82002B30
:104B380000F08081620849466046BB69984718EED4
:104B4800103A24379D46BD46BDEC028BBDE8F08F78
:104B5800002C8DD01A46D8ED0C6A9FEDB27A8446A7
:104B6800331D36F922E00CF1080C07EE90EA33F910
:104B780022E00232F8EEE77A944267EE877A67EE2F
:104B8800A67A4CED027A07EE90EAF8EEE77A67EE3D
:104B9800877A67EEA67A4CED017AE2D8F961224667
:104BA800C847984ED8ED0D6A0020F9692B1D9FED76
:104BB8009E7A9FED9E6ADFED9E5A22E0F4EEC67A59
:104BC800F1EE10FAC0F2C88447F6FE72D1ED017A10
:104BD80045F8202066EEA77AF4EEC77AF1EE10FACF
:104BE80040F2F080F4EEC67AF1EE10FAC0F2D58405
:104BF80047F6FE7243F820200230083184427FF6DF
:104C080039AFD1ED007A66EEA77AF4EEC77AF1EE05
:104C180010FAD3D83246D9E7002C3FF429AFD8EDA3
:104C28000C6A84469FED787A0022331D8E4656F82A
:104C380022100CF1080C07EE901A53F822100232D9
:104C4800F8EEE77A944267EE877A67EEA67A4CED3B
:104C5800027A07EE901AF8EEE77A67EE877A67EE3F
:104C6800A67A4CED017AE2D871462246C7F81CE0D4
:104C7800C847664ED8ED0D6A0020F9692B1D9FEDD7
:104C88006A7A9FED6A6ADFF894C120E0F4EEC67A8A
:104C9800F1EE10FAC0F279843246D1ED017A45F886
:104CA800202066EEA77AF4EEC77AF1EE10FA40F209
:104CB8008780F4EEC67AF1EE10FAC0F25E843246CE
:104CC80043F820200230083184427FF6D3AED1ED7C
:104CD800007A66EEA77AF4EEC77AF1EE10FAD5D824
:104CE8006246DAE7002C3FF4C3AED8ED0C6A86467C
:104CF8009FED477A4FF0000C331D56F82C200EF12B
:104D0800080E82F40002A2F5000207EE902A53F87A
:104D18002C200CF1020CF8EEE77A82F400026445CC
:104D2800A2F5000267EE877A67EEA67A4EED027A60
:104D380007EE902AF8EEE77A67EE877A67EEA67AAA
:104D48004EED017AD9D8F9612246C847314ED8EDDF
:104D58000D6A0020F9692B1D9FED337A9FED336AA8
:104D6800DFF8BCC01FE0F4EEC67AF1EE10FAC0F22C
:104D7800FC833246D1ED017A45F8202066EEA77A09
:104D8800F4EEC77AF1EE10FA18D9F4EEC67AF1EE1D
:104D980010FAC0F2DA83324643F820200230083194
:104DA80084427FF667AED1ED007A66EEA77AF4EE1C
:104DB800C77AF1EE10FAD6D86246DBE76246EBE72F
:104DC80062467DE7324615E7A100D64662080731FC
:104DD80021F00701ADEB010DEA46ADEB010D694687
:104DE800ADEB0E0D0AEB8200EC46ADEB0E0D01EBC0
:104DF8008202F861E946CCE900A0C9E9001290E610
:104E0800C41901240280FFFF000000300082FF7FE8
:104E18000000003482FF7F00A8190124007E008072
:104E28007E0080FF0000003804FF7FBF04FF7F3F43
:104E380000FEFF46002C00F0C982BBF1020FD8F833
:104E4800242000F0FA827969C7F8049002EB810EF9
:104E58005FED0C5A8A00DCF808100EF104007A6144
:104E68001A46DCF80C303B61331DD7F810903D61D1
:104E7800FD69C7E902CB8C46834636F92210D8ED86
:104E88000C7A06EE101A33F9221006EE901A3EF943
:104E98002210B8EEC66A07EE101AF8EEE66A3BF979
:104EA8002210B8EEC77A26EE256A66EEA56A27EEC6
:104EB800257A26EE276A66EEA76A27EE277A07EE96
:104EC800901A51080232F8EEE77A0AEB8100944210
:104ED80080ED006A05EB810067EEA57AC0ED006AF7
:104EE8000CEB810009EB810180ED007A98ED0C7ADA
:104EF80067EE877AC1ED007ABFD8D7F804903D698C
:104F0800D7E902CB60466208BB6949469847D8F89A
:104F18002C307A69D8ED0D6A1A441FED3D7A1FEDE1
:104F28003D6A2B1D904602F1040A5FED3F5A0022AC
:104F3800A84ED9E900EC51E0F4EEC67AF1EE10FA89
:104F4800C0F2C78247F6FE7045F822000CEB01005C
:104F5800D0ED007A66EEA77AF4EEC77AF1EE10FA91
:104F68004BD9F4EEC67AF1EE10FAC0F2BA8247F6DF
:104F7800FE70BBF1020F43F822002BD0D9F80800CD
:104F88000844D0ED007A66EEA77AF4EEC77AF1EE1F
:104F980010FA36D9F4EEC67AF1EE10FAC0F2CD82E4
:104FA80047F6FE7048F82200D9F80C000144D1ED0C
:104FB800007A66EEA77AF4EEC77AF1EE10FA1ED9F7
:104FC800F4EEC67AF1EE10FAC0F2AF8247F6FE713F
:104FD8004AF82210023294427FF6B1AD51080EEB26
:104FE80081008900D0ED007A66EEA77AF4EEC77AE0
:104FF800F1EE10FAA0D83046A6E73046B9E73146B8
:10500800E6E73046CEE7002C00F0E081BBF1020F66
:10501800D8F8243000F0E1817A69DCF8081003EB55
:10502800820EC7F804909300DFED6B5A0EF104006E
:1050380000227B61DCF80C303B61331DD7F81090FF
:105048003D61FD69C7E902CB8C46834656F82210BC
:10505800D8ED0C7A07EE101A53F82210B8EEC76A8A
:1050680007EE101A5EF82210F8EEC76A07EE101A5B
:1050780026EE256A5BF82210B8EEC77A66EEA56AB6
:1050880026EE276A27EE257A66EEA76A27EE277AA4
:1050980007EE901A51080232F8EEE77A0AEB81001F
:1050A800944280ED006A05EB810067EEA57AC0EDB9
:1050B800006A0CEB810009EB810180ED007A98ED24
:1050C8000C7A67EE877AC1ED007ABFD8D7F80490DA
:1050D8003D69D7E902CB60466208BB6949469847F3
:1050E800D8F82C307A69D8ED0D6A1A449FED3E7ACB
:1050F8009FED3E6A131D9246DFF8E4C00022FB6173
:105108002B1D364ED9E9008E4EE0F4EEC67AF1EE4C
:1051180010FAC0F2FC81304645F822000EEB01007F
:10512800D0ED007A66EEA77AF4EEC77AF1EE10FABF
:1051380049D9F4EEC67AF1EE10FAC0F2EF813046A2
:10514800BBF1020F43F822002AD0D9F8080008441E
:10515800D0ED007A66EEA77AF4EEC77AF1EE10FA8F
:1051680035D9F4EEC67AF1EE10FAC0F2C9813046AC
:105178004AF82200D9F80C000144D1ED007A66EE15
:10518800A77AF4EEC77AF1EE10FA1ED9F4EEC67AD1
:10519800F1EE10FAC0F2AD813146F86940F82210FC
:1051A800023294427FF6CBAC510808EB81008900AB
:1051B800D0ED007A66EEA77AF4EEC77AF1EE10FA2F
:1051C800A3D86046A8E76046BAE76146E5E76046C7
:1051D800CEE700BF0280FFFF000000300082FF7FA3
:1051E800007E00800000003404FF7FBF04FF7F3F83
:1051F800002C00F0EB807A690021D8F82430C7F839
:10520800109003EB820ED7F81C909300FD610EF10D
:1052180004021FED0C6A7B61331D154656F82120E8
:105228004808D8ED0C6ABBF1020F82F40002A2F51F
:10523800000207EE902A53F8212082F40002B8EE0B
:10524800E77AA2F5000227EE067A07EE902A0AEB23
:105258008002F8EEE77A27EE267A67EE867A82ED04
:10526800007A09EB80024FEA800067EEA67AC2ED69
:10527800007A27D05EF8212082F40002A2F500020D
:1052880007EE902A55F8212082F40002B8EEE77A5A
:10529800A2F5000227EE067A07EE902ADCF808202D
:1052A800F8EEE77A024427EE267A67EE867A82EDF0
:1052B800007A98ED0C7ADCF80C2067EE877A0244C5
:1052C800C2ED007A02318C42A8D8D7F81090604617
:1052D8006208BB694946FD699847D8F82C307A6955
:1052E800D8ED0D6A1A441FED407A1FED406A131D70
:1052F8009246DFF8C4C20022FB612B1DAB4ED9E9F0
:10530800008E4EE0F4EEC67AF1EE10FAC0F2C580D7
:10531800304645F822000EEB0100D0ED007A66EE2B
:10532800A77AF4EEC77AF1EE10FA49D9F4EEC67A04
:10533800F1EE10FAC0F2BF803046BBF1020F43F81D
:1053480022002AD0D9F808000844D0ED007A66EE89
:10535800A77AF4EEC77AF1EE10FA35D9F4EEC67AE8
:10536800F1EE10FAC0F2AE8030464AF82200D9F8C1
:105378000C000144D1ED007A66EEA77AF4EEC77A04
:10538800F1EE10FA1ED9F4EEC67AF1EE10FAC0F278
:105398008B803146F86940F82210023294427FF639
:1053A800CEAB510808EB81008900D0ED007A66EE9B
:1053B800A77AF4EEC77AF1EE10FAA3D86046A8E708
:1053C8006046BAE76146E5E76046CEE722464946C9
:1053D8006046BB699847FFF7B2BBC7F810B0002218
:1053E80098ED0C6A331DDFED726AD7F81CB0786946
:1053F80056F8221007EE901A53F82210B8EEE77A02
:1054080007EE901A51080232F8EEE77A27EE267A6C
:105418000AEB810E94420BEB810167EEA67A27EE28
:10542800067A67EE867A8EED007AC1ED007ADFD8CB
:105438008300D7F810B07B614DE61A46C7F810B064
:1054480098ED0C6A331DDFED5B6AD7F81CB07869FC
:1054580036F9221007EE101A33F9221007EE901AC7
:10546800B8EEC77A51080232F8EEE77A27EE267AC4
:105478000AEB810E94420BEB810167EEA67A27EEC8
:10548800067A67EE867A8EED007AC1ED007ADFD86B
:105498008300D7F810B07B6134E5F0EE675AFEEE72
:1054A800E45A15EE900A34E7F0EE675AFEEEE45A35
:1054B80015EE901A6EE7F0EE675AFEEEE45A15EE16
:1054C800900A3AE7F0EE675AFEEEE45A15EE900AB3
:1054D8004BE767EEA57AFDEEE77A17EE900A00B281
:1054E80032E567EEA57AFDEEE77A17EE900A00B28C
:1054F8003FE5F0EE675AFEEEE05A15EE901A4CE6DC
:10550800F0EE675AFEEEE05A15EE900A30E6F0EE3D
:10551800675AFEEEE05A15EE900AFDE5F0EE675A7E
:10552800FEEEE05A15EE900A0AE667EEA57AFDEE61
:10553800E77A17EE901A09B24AE567EEA57AFDEE0A
:10554800E77A17EE900A00B22CE5F0EE675AFEEE05
:10555800E45A15EE902A1FE467EEA57AFDEEE77A85
:1055680017EE902A12B2FFF731BBF0EE675AFEEE43
:10557800E45A15EE902AFFF7FDBBF0EE675AFEEEEF
:10558800E05A15EE902AFFF79BBBF0EE675AFEEE45
:10559800E05A15EE902AFFF780BB67EEA57AFDEE7C
:1055A800E77A17EE902A12B2FFF724BB82FF7F003A
:1055B80000000030000000387E0080FF30B5184C35
:1055C800154685B0046004F1080EEC460FC98EE854
:1055D8000F00D4ED047AF5EEC07A8CE80F00F1EEF6
:1055E80010FA1ADDB7EE006A94ED057A27EE277AED
:1055F800C6EE276A84ED0D7AC4ED0C6A6DB12046BB
:1056080040F8185F01F08CFB064903690020064A40
:105618002162A262E36005B030BD012005B030BD53
:10562800A81901240020003000000030F0B51C4CFF
:1056380016461F4689B0046004F10805EE460DF1D0
:10564800100C0FC985E80F00D4ED047AF5EEC07A86
:105658008EE80F00F1EE10FA8CE80F0017DDB7EEB8
:10566800006A94ED057A27EE277AC6EE276A84ED5C
:105678000D7AC4ED0C6A56B1204640F8186F01F057
:105688004FFB08490369084A2162A262E360074A9E
:105698000020074BE7616262E36209B0F0BD00BF1A
:1056A800A81901240020003000000030003000302C
:1056B8000010003000680830704700BFB1F5807FE7
:1056C80003680A4628BF4FF48072B1F5807F9A605C
:1056D80094BF0020012070470068183001F080BB9B
:1056E80030B5046883B00D46E3694BB1A368002068
:1056F800E26A616A9B00009004F11C0001F012FB51
:10570800A3680748A26A9B00216A009004F1180068
:1057180001F008FB0020C4E9005003B030BD00BF11
:10572800094A000810B4074B4FF07E51302400227C
:10573800032019619C60D8605DF8044B5961C3E986
:1057480006227047A8190124074A118830B48180BD
:105758000024064D91884FF4807285600460C180F2
:10576800C26030BC704700BF2C3E010800400030CA
:1057780038B50446104694F895301942237815D068
:10578800032B19D094F89820002594F896300A40F5
:1057980025700B40A26001F0F8021B09F82A23715A
:1057A80000F08680092B73D9002038BD032BFBD865
:1057B800DFE803F0112A5102F7291CD094F98E2052
:1057C80094F88E30002AEFDBE21801330020917341
:1057D80084F88E3038BD94F8942094F8973022716C
:1057E8001940131F012B217305D994F88F3003F04A
:1057F800FD03012B45D10023237018B19022211DF0
:105808000EF0F2FA012038BD94F8973094F89420FD
:105818001940131F2173012B05D994F88F3003F019
:10582800FD03012B29D10023237000284CD090229E
:10583800211D0EF0D9FA94F894200120032AB4D13E
:10584800237B772BB1D90922783B227184F89420E5
:1058580084F8913038BD94F8973094F89420194022
:10586800012A617300D181B118B19022211D0EF077
:10587800BBFA00230120237038BD022300202370C7
:10588800DCE702230020237038BD00232371EBE7F7
:105898000122072B227019D101F00703A56084F8B3
:1058A8008F30CBB90322184684F88E30227038BD69
:1058B8000823237194F8993000221940227084F843
:1058C800901000289AD19DE70120B7E7082BF1D066
:1058D800284684F8943038BD4B077FF565AF8AE7D2
:1058E80000220A2302700371704700BF10B592B0FE
:1058F800ADF804100180C9B2149C0B29C460C0E93A
:1059080001233FD090F801C0BCF10F0F3AD8022A0A
:105918003FD0032A02D0012A00D000220E92012B88
:1059280002D0022B18BF0023022C0F932CD0032C7B
:105938002AD0012C28D000230A29109327D85C4AA2
:1059480002EB812202610A2914D8DFE801F0A3954D
:1059580087796B5D4F4133250600564BD3F8E0102D
:1059680041F48061C3F8E010D3F8E03003F48063B9
:105978000C930C9B01230DA9104603FA0CF30D930D
:1059880004F060F812B010BD0A291094D7D900228B
:10599800D8E711220E92C2E7464BD3F8E01041F443
:1059A8000071C3F8E010D3F8E03003F400730B93F0
:1059B8000B9BDFE73F4BD3F8E01041F48071C3F84D
:1059C800E010D3F8E03003F480730A930A9BD1E720
:1059D800384BD3F8E01041F08001C3F8E010D3F859
:1059E800E03003F080030993099BC3E7314BD3F8F8
:1059F800E01041F04001C3F8E010D3F8E03003F0C4
:105A080040030893089BB5E72A4BD3F8E01041F010
:105A18002001C3F8E010D3F8E03003F02003079327
:105A2800079BA7E7234BD3F8E01041F01001C3F818
:105A3800E010D3F8E03003F010030693069B99E7D3
:105A48001C4BD3F8E01041F00801C3F8E010D3F87C
:105A5800E03003F008030593059B8BE7154BD3F85B
:105A6800E01041F00401C3F8E010D3F8E03003F08F
:105A780004030493049B7DE70E4BD3F8E01041F038
:105A88000201C3F8E010D3F8E03003F002030393F7
:105A9800039B6FE7074BD3F8E01041F00101C3F80F
:105AA800E010D3F8E03003F001030293029B61E7B2
:105AB800000002580044025808B5012143780069E3
:105AC800994089B204F0C6F9003818BF012008BD12
